:100000000C9434000C9446000C9446000C9446006A
:100010000C9446000C9446000C9446000C94460048
:100020000C9446000C9446000C9446000C94460038
:100030000C9446000C9448000C9446000C94460026
:100040000C9446000C9446000C9446000C94460018
:100050000C9446000C9446000C9446000C94460008
:100060000C9446000C94460011241FBECFEFD8E03C
:10007000DEBFCDBF21E0A0E0B1E001C01D92A43001
:10008000B207E1F70E947F000C9492000C940000EC
:100090001F920F920FB60F9211242F938F939F935D
:1000A000809101019091020120910301222391F09E
:1000B0002130D9F080910101909102019093890043
:1000C000809388009F918F912F910F900FBE0F907A
:1000D0001F9018950196909302018093010101975A
:1000E00049F781E080930301E5CF019790930201E6
:1000F00080930101892BF1F610920301DBCF14B834
:1001000013B881E1809381001092800081E0809398
:100110006F00789483B7816083BF889583B78E7FA3
:0E01200083BFF8CFF8940C949500F894FFCFAD
:00000001FF
